:020000040800F2
:1000000000000120C5020008CB020008CF02000852
:1000100041030008450300088D03000800000000AC
:10002000000000000000000000000000D5030008F0
:10003000D903000800000000DD030008A109000842
:10004000F1030008F1030008F1030008F1030008C0
:10005000F1030008F1030008250700084107000824
:10006000F1030008F1030008F1030008F1030008A0
:10007000F1030008F1030008F1030008F103000890
:10008000F1030008F1030008F1030008000000007C
:10009000000000000000000000000000F103000864
:1000A000F1030008F1030008F1030008F103000860
:1000B000F1030008F1030008F1030008F103000850
:1000C000F1030008F1030008F1030008F103000840
:1000D000F1030008F1030008F1030008000000002C
:1000E000F1030008F1030008F1030008000000001C
:1000F000000000000000000000000000F103000804
:1001000000000000F1030008F1030008F1030008FB
:1001100000000000000000000000000000000000DF
:10012000F1030008F1030008F1030008F1030008DF
:10013000F1030008000000000000000000000000C3
:10014000000000000000000000000000F1030008B3
:10015000F1030008F1030008F1030008F1030008AF
:10016000F1030008F1030008000000000000000097
:10017000000000000000000000000000000000007F
:1001800000000000F1030008000000000000000073
:10019000F103000800B583B000F0BAF9384B394AD2
:1001A0001360394A1360394900E02146384B9942BF
:1001B0000BD20A684B6801F10C0488689842F4D9A4
:1001C0001168196004330432F8E72E4B1A68314B7A
:1001D0009A4200D0FEE72C4B1A682F4B9A42F9D175
:1001E000274B2E4A13602E4A13602E4B05E0002049
:1001F000106004329342FAD80B462B4A934204D241
:10020000194651F8082B5B68F4E7244B1B6813B9B7
:10021000234B1B6803B1FEE700F086F9694601A88D
:1002200000F022F9214C224BE41AA4100025AC4224
:1002300014DC204C204BE41AA4100025AC4213DC43
:100240000099019800F0D6FB05461C4C1C4BE41AA3
:10025000A410002C0EDC284600F0E2F8144B53F8F2
:10026000253098470135E2E7134B53F8253098477E
:100270000135E3E7013C124B53F824309847E8E797
:10028000BABADECA0000002074000020F40300089F
:100290000C04000878563412325476987800002006
:1002A000200100200C0400081C0400081C040008A5
:1002B0001C0400081C0400081C0400081C0400089E
:1002C0001C04000808B5FFF765FF00BEFEE71EF03E
:1002D000040F0CBFEFF30880EFF309807146414A29
:1002E00010472DE9F04182B004468846124B5E6B00
:1002F0009F6B9D6A1B6B13F0020F03D00E4BDB6AE2
:10030000002B0CDB0D4800F0B7F8CDF800803B4621
:1003100032462946204600F00BF900BEFEE74BF6B8
:10032000AB6100F07FF90028ECD0034B4FF00042A6
:10033000DA6202B0BDE8F08100ED00E0541400087C
:1003400000BEFEE71EF0040F0CBFEFF30880EFF3D2
:1003500009807146244A10472DE9F04182B00446D5
:100360008846084B5E6B9F6B9D6A074800F084F8D7
:10037000CDF800803B4632462946204600F0D8F8AA
:1003800000BEFEE700ED00E0641400081EF0040F5C
:100390000CBFEFF30880EFF309807146134A104752
:1003A0002DE9F04182B004468846084B5E6B9F6B96
:1003B0009D6A074800F060F8CDF800803B46324661
:1003C0002946204600F0B4F800BEFEE700ED00E04C
:1003D0007014000800BEFEE700BEFEE700BEFEE7A8
:1003E00070470000E302000859030008A103000859
:0403F00000BEFEE766
:1003F400E8EF01080000002078000020E8EF010881
:1004040000000010000000107800002024010020EB
:080414000000001000000010C0
:10042000FEE7000008B503460C4A12685AB10B4AB1
:100430001068033323F003030344094A934206D8A8
:10044000064A136008BD054A06491160EFE700F04F
:10045000FBFA0C2303604FF0FF30F3E77C00002031
:1004600000FC00202401002001230360014B0B60ED
:10047000704700BF040000200FB400B583B004AB88
:1004800053F8042B01938021064800F00FFB00284D
:1004900003DD0146034800F037F803B05DF804EBD4
:1004A00004B07047840000202DE9F04385B0044675
:1004B0000F4643560BB10E461EE004252846214642
:1004C000ABBE0446384605B0BDE8F08314F9011B05
:1004D00004AA1A4402F8101C0133AB42F6D304AA52
:1004E0001344002203F8102C4FF00408E94640465C
:1004F0004946ABBE8046761B002EE3D03546102E13
:1005000028BF10250023E8E708B5FFF7CDFF08BD99
:1005100008B500F097F8024A024B9A6008BD00BF88
:100520000000000800ED00E008B500F0ABF808BDE1
:10053000F8B504460D4617461E462748FFF79CFFB0
:1005400021682648FFF798FF61682548FFF794FF68
:10055000A1682448FFF790FFE1682348FFF78CFF6C
:1005600021692248FFF788FF61692148FFF784FF6E
:10057000A1692048FFF780FFE1691F48FFF77CFF72
:100580001E48FFF779FF29461D48FFF775FF1D4CF0
:10059000E16A1D48FFF770FF216B1C48FFF76CFFF5
:1005A000E16B1B48FFF768FF15F0800F0AD115F4C7
:1005B000004F0CD11748FFF75FFF06991648FFF769
:1005C0005BFFF8BD39461548FFF756FFEFE73146A8
:1005D0001348FFF751FFEDE73813000848130008F0
:1005E00058130008681300087813000888130008DF
:1005F00098130008A8130008B8130008C8130008CF
:10060000D413000800ED00E0E4130008F413000820
:1006100004140008341400083C14000814140008E2
:100620002414000883691A888A4201D00020704788
:100630000268033A012A03D802338361012070471C
:10064000002070470C4B1A6842F001021A6000212A
:1006500099601A6822F0847222F480321A60074A84
:100660005A601A6822F480221A60D960044B4FF055
:1006700000629A60704700BF0038024010300024CA
:1006800000ED00E0224B9B6803F00C03042B14D018
:10069000082B16D01BB11F4B1F4A1A6002E01D4BDE
:1006A0001D4A1A601A4B9B68C3F303131B4AD15CA3
:1006B000184A1368CB4013607047164B184A1A60EB
:1006C000F0E7134B5A685B6803F03F0312F4800FA6
:1006D00013D0134AB2FBF3F20D4B5B68C3F38813DC
:1006E00003FB02F30A4A5268C2F30142013252008C
:1006F000B3FBF2F3074A1360D4E7074AB2FBF3F205
:10070000034B5B68C3F3881303FB02F3EAE700BF04
:10071000003802400C0000200024F400801400087F
:1007200040787D0108B5044B1B689847034A53691C
:1007300043F00103536108BD04010020003C014067
:1007400008B5044B1B689847034A536943F00203FA
:10075000536108BD08010020003C014005282DD848
:10076000DFE800F0030A11181F2615480368490046
:100770008A401A43026070471248036849008A4061
:100780001A43026070471048036849008A401A43C0
:10079000026070470D48036849008A401A430260AE
:1007A00070470B48036849008A401A43026070474B
:1007B0000848036849008A401A430260704700BF36
:1007C000000002400004024000080240000C024009
:1007D00000100240001C0240052827D8DFE800F086
:1007E00003090F151B21124843688A401A434260CF
:1007F0007047104843688A401A43426070470E4869
:1008000043688A401A43426070470C4843688A40F4
:100810001A43426070470A4843688A401A4342605C
:100820007047084843688A401A434260704700BFD7
:10083000000002400004024000080240000C024098
:1008400000100240001C024005282DD8DFE800F00F
:10085000030A11181F261548836849008A401A4365
:10086000826070471248836849008A401A43826058
:1008700070471048836849008A401A438260704775
:100880000D48836849008A401A43826070470B48CC
:10089000836849008A401A43826070470848836829
:1008A00049008A401A438260704700BF000002403E
:1008B0000004024000080240000C02400010024008
:1008C000001C0240032822D8DFE800F0020A121AB6
:1008D0000F480368012202FA01F1194301607047D1
:1008E0000C480368012202FA01F1194301607047C4
:1008F00009480368012202FA01F1194301607047B7
:1009000006480368012202FA01F1194301607047A9
:100910003038024034380240403802404438024007
:10092000074A136843F001031360064B1A6822F06C
:1009300001021A601A6822F002021A60704700BFB2
:100940000038024008380240014B00221A6070470C
:1009500010E000E0044B586000229A601A6842F0F0
:1009600001021A60704700BF10E000E0024B1868F7
:10097000C0F30040704700BF10E000E0044B1A686D
:1009800022F002021A601A6842EA400018607047BA
:1009900010E000E0014B1860704700BF0C01002020
:1009A00000B583B000238DF80730054B1B689847CE
:1009B000FFF7DCFF8DF8070003B05DF804FB00BF14
:1009C0000C010020074A13680749C85C07494861C1
:1009D00001331360064A934200D07047014B002256
:1009E0001A60FAE71001002090140008000002408D
:1009F00023DB010010B5FFF793FF00210846FFF746
:100A000061FF002410E0012221460020FFF7A6FE2E
:100A1000012221460020FFF717FF00222146104641
:100A2000FFF7DAFE0134E4B2072CECD9FFF78CFFB4
:100A30000120FFF7A3FF0348FFF7ACFFFA20FFF701
:100A400089FFFEE7C5090008014B1868704700BF21
:100A50001000002030B5141E05469BB0184605DA7C
:100A60008B232B604FF0FF301BB030BD4FF402736F
:100A7000ADF80C3014BF04F1FF3323460293059305
:100A80004FF6FF7300910491ADF80E3002461E9BA5
:100A90006946284600F072F8431CBCBF8B232B60CC
:100AA000002CE1D0009B00221A70DDE707B500930F
:100AB00013460A46014603480068FFF7CBFF03B020
:100AC0005DF804FB100000202DE9F0478E689E427F
:100AD00082460C469046994637D88A8912F4906F20
:100AE00031D0256809696F1A6569022305EB450550
:100AF00095FBF3F509F101033B449D4238BF1D46C8
:100B0000530530D5294600F07DFB064650B90C232D
:100B1000CAF80030A38943F04003A3814FF0FF30AF
:100B2000BDE8F0873A46216900F0FAFAA38923F478
:100B3000906343F08003A381266165613E44ED1B11
:100B40002660A5604E464E4500D94E463246414687
:100B5000206800F0F0FAA3689B1BA36023681E4482
:100B600026600020DCE72A4600F0A6FB06460028A7
:100B7000E2D12169504600F0F7FAC8E72DE9F04FBD
:100B80009DB0804603938B891D060C4616460FD5F3
:100B90000B696BB9402100F035FB2060206128B95A
:100BA0000C23C8F800304FF0FF30C7E040236361EA
:100BB0000023099320238DF8293030238DF82A3023
:100BC0004FF0010B37463D4615F8013B0BB1252B85
:100BD0003ED1B7EB060A0BD053463246214640467B
:100BE000FFF772FF013000F0A480099B5344099382
:100BF0003B78002B00F09D8000234FF0FF32CDE9C1
:100C00000523049307938DF853301A932F4605223A
:100C100017F8011B4F4800F033FA049BD0B9D906EE
:100C200044BF20228DF853201A0744BF2B228DF891
:100C300053202A782A2A15D0079A2F4600200A2501
:100C4000394611F8013B303B092B4DD9B8B10FE0C3
:100C50002F46B8E73F4A801A0BFA00F01843049079
:100C60003D46D3E7039A111D12680391002A01DB68
:100C7000079204E0524243F00203079204933B7848
:100C80002E2B0CD17B782A2B33D1039B1A1D1B688A
:100C90000392002BB8BF4FF0FF33023705932E4D60
:100CA00039780322284600F0EBF938B14023401B85
:100CB00003FA00F0049B0343013704933978274873
:100CC0008DF8281006227E1C00F0DAF9002838D0B2
:100CD000234B13BB039B073323F007030833039312
:100CE000099B4B4409936DE705FB023201200F4637
:100CF000A6E700230137059319460A25384610F860
:100D0000012B303A092A03D9002BC8D00591C6E738
:100D100005FB012101230746F0E703AB00932246C0
:100D2000104B04A94046AFF30080B0F1FF3F81466D
:100D3000D6D1A3895B063FF536AF09981DB0BDE853
:100D4000F08F03AB00932246064B04A9404600F007
:100D500081F8EAE7B3EF0108B9EF0108BDEF010838
:100D600000000000C90A00082DE9F04791461F461F
:100D70008A680B69DDF820809342B8BF1346C9F832
:100D8000003091F8432006460C4612B10133C9F8F1
:100D900000302368990642BFD9F800300233C9F801
:100DA0000030256815F0060507D104F1190AE3683B
:100DB000D9F800209B1AAB4228DC94F84330226813
:100DC000003318BF012392062DD404F143023946A3
:100DD0003046C047013020D02368E568D9F80020AC
:100DE00003F00603042B08BFAD1AA36822690CBFE9
:100DF00025EAE57500259342C4BF9B1AED184FF014
:100E000000091A344D451AD1002008E0012352464A
:100E100039463046C047013003D14FF0FF30BDE8BE
:100E2000F0870135C3E7E1185A1C302081F84300F0
:100E3000224494F8451082F843100233C5E7012399
:100E4000224639463046C0470130E6D009F1010953
:100E5000D8E700002DE9F04301F1430C0C46097E70
:100E600085B06E291746064698460C9A00F0B38066
:100E700022D8632936D00AD8002900F0B980582931
:100E800000F0838004F1420584F8421032E06429C6
:100E900001D06929F6D120681368050603F1040121
:100EA0002AD51B681160002B03DA2D225B4284F8DF
:100EB00043206F480A2239E0732900F09D8008D84A
:100EC0006F2920D07029DDD1236843F020032360EF
:100ED00003E0752917D07829D4D1782384F84530D8
:100EE000644855E01368191D1B68116004F1420540
:100EF00084F8423001238CE01B68116010F0400F31
:100F000018BF1BB2CFE713682568181D10602806AC
:100F100001D51B6802E06806FBD51B8854486F2981
:100F200014BF0A220822002184F843106568A560D6
:100F3000002DC0F29580216821F004012160002B72
:100F40003DD1002D40F08E806546082A0BD12368E4
:100F5000DB0708D5236962689A42DEBF302305F8B3
:100F6000013C05F1FF35ACEB05032361CDF80080B2
:100F70003B4603AA21463046FFF7F6FE01304DD12D
:100F80004FF0FF3005B0BDE8F083394884F84510D4
:100F9000136821681D1D1B6815600A060BD5CA075A
:100FA00044BF41F0200121601BB9226822F02002D9
:100FB00022601022B7E74D0648BF9BB2EFE76546B7
:100FC000B3FBF2F102FB1133C35C05F8013D0B46A4
:100FD0000029F5D1B9E7136825686169181D10600B
:100FE00028061B6801D5196002E06A06FBD5198046
:100FF000002323616546B9E71368191D11601D6858
:1010000062680021284600F03BF808B1401B606090
:1010100063682361002384F84330A7E723692A46E5
:1010200039463046C0470130AAD023689B0713D405
:10103000E068039B9842B8BF1846A3E701234A46DD
:1010400039463046C04701309AD00135E368039AEB
:101050009B1AAB42F2DCEBE7002504F11909F5E736
:10106000002BACD1037884F8423004F142056CE7E0
:10107000C4EF0108D5EF01080000000000000000E7
:1010800001F0FF01102A2BDB10F0070F08D010F839
:10109000013B013A8B422DD010F0070F42B3F6D13D
:1010A000F0B441EA012141EA014122F007047FF056
:1010B00000070023F0E80256083C85EA010586EAAD
:1010C000010685FA47F5A3FA87F586FA47F6A5FAE9
:1010D00087F68EB9EED1F0BC01F0FF0102F00702F5
:1010E00032B110F8013B013A83EA010313B1F8D1A0
:1010F0000020704701387047002D06BF3546033881
:10110000073815F0010F07D1013015F4807F02BFB9
:10111000013015F4C03F0130F0BC0138704700BF0A
:1011200010B5431E0A44914200D110BD11F8014B85
:1011300003F8014FF7E7884210B501EB020307D827
:10114000421E99420AD011F8014B02F8014FF8E70C
:101150008342F5D98118D21AD34200D110BD13F8B9
:10116000014D01F8014DF7E738B50546002945D096
:1011700051F8043C0C1F002BB8BFE41800F0D2F863
:101180001F4A1368104633B9636014602846BDE8EF
:10119000384000F0C8B8A3420CD9216862189342C5
:1011A00004BF1A685B68636004BF52182260046061
:1011B000ECE713465A680AB1A242FAD919685818DE
:1011C000A0420BD120680144581882421960DDD139
:1011D000106852685A6001441960D7E702D90C239D
:1011E0002B60D3E7206821188A4204BF1168526837
:1011F000626004BF091821605C60C7E738BD00BFAA
:101200001401002070B5CD1C25F0030508350C2D08
:1012100038BF0C25002D064601DBA94203D90C235B
:101220003360002070BD00F07DF8214A146821462B
:1012300091B9204C23681BB9304600F063F8206058
:101240002946304600F05EF8431C24D10C2333605D
:10125000304600F068F8E4E70B685B1B18D40B2BF2
:101260000FD90B60CD50CC18304600F05CF804F17B
:101270000B00231D20F00700C31AD3D05A42E250BE
:10128000D0E78C424B6816BF636013600C46EBE7F7
:101290000C464968CCE7C41C24F00304A04205D0E6
:1012A000211A304600F02EF80130CFD02560DBE760
:1012B0001401002018010020F8B5074614460E4618
:1012C00021B91146BDE8F840FFF79CBF22B9FFF7EE
:1012D0004BFF25462846F8BD00F026F8A0420FD265
:1012E00021463846FFF78EFF05460028F2D03146EA
:1012F0002246FFF715FF31463846FFF735FFE9E78D
:101300003546E7E738B5064C002305460846236016
:10131000FFF788F8431C02D1236803B12B6038BD66
:101320001C0100207047704751F8043C181F002B27
:10133000BCBF0B58C0187047537461636B20667252
:10134000616D653A0A000000205230203D202025C2
:101350003038580A00000000205231203D2020255E
:101360003038580A00000000205232203D2020254D
:101370003038580A00000000205233203D2020253C
:101380003038580A0000000020523132203D20251C
:101390003038580A00000000204C52203D20202503
:1013A0003038580A00000000205043203D202025FE
:1013B0003038580A0000000020505352203D2025AC
:1013C0003038580A000000004653522F4641523A26
:1013D0000A0000002043465352203D20202530388B
:1013E000580A00002048465352203D20202530381E
:1013F000580A00002044465352203D202025303812
:10140000580A00002041465352203D202025303804
:10141000580A0000204D4D464152203D20253038CD
:10142000580A00002042464152203D2020253038F5
:10143000580A00004D6973630A000000204C522FC7
:101440004558435F52455455524E3D20253038583B
:101450000A0000005B486172644661756C745D0A45
:10146000000000005B4275734661756C745D0A0094
:101470005B55736167654661756C745D0A000000B9
:101480000000000000000000010203040607080934
:1014900087918D8E888A86898F6A73747793888DF9
:1014A0009483738072827F6E6F6A7384978F8C7C53
:1014B000737D747E89767F8686979A828C857A8002
:1014C0006F7871686B77798C9E918A777480827857
:1014D0007574719197A1A68879766A6D726A776A38
:1014E000687D8A9AA68F7E796D7479787C828595DD
:1014F0009A9A9B7F756D6978766B61586D8CA6ADF5
:101500009C86706F6E8D8D8984808D96998483689A
:101510006E6D6C73665D5E78879FA49A8F7C7A850A
:1015200082808072768087928B8C89827A74675CE5
:10153000616B88929E9787746C7987918D928B806E
:10154000827E82857E7C78767776686A74879993C6
:10155000877A6F68767B797D7F81868D909384838F
:101560007B7171727477858C9C99968E7A73746F87
:101570006E7475807B808F92908A80777C79797287
:101580006C79859497958F85766D7472797D7A7C68
:10159000858A8982787E7C787A777A828B8B95901F
:1015A0008985757879767975797F82858785828452
:1015B0007D776D6F787D7E848B94988C827A777C32
:1015C0007874787C7E817B80888588817A73777453
:1015D000737A7E91958E867F7E817876797A8781FF
:1015E00080828488858079777B75766E7A87888E0D
:1015F000898684827B7D778280828083888A8A7EC6
:101600007C7776716F6F727B878F918D897F7D7606
:10161000787A86848986888F8A887D7A787A7374C6
:101620006F6F717A7D8E8A8D827B7C7A80858584CE
:101630008A84928A92847E76767572706E727680D3
:1016400085908F897E77787E7E837D808289898F61
:101650008A8B877F7B73706C6B64767E94929387A2
:10166000837C7A7E7F827E82808C808982857C7674
:10167000757A7C75746C7F8093898A7C7C7976809E
:1016800081868286818E84918A847D747572777357
:10169000746C818292918C86797C777B7C83767B5B
:1016A0007A82898E948A897E81797D716C6A6F7B5A
:1016B0008194969C8983737472777674797C8D8B10
:1016C0009A8F8E7F7C76787879756E747A8C939AFF
:1016D0008C81787B7A7D7E7A7577747F8791938F02
:1016E000867E7C797C6F6C686F748B8FA398887C06
:1016F00073767778767A798A8C99919280787174FA
:101700007778767376757879878B908A867C7E7AFF
:101710007D79787580869292928C82807579707AC4
:10172000747871756D7C878C96898A8289828478B9
:10173000796E7281858D878A848982847E79746EC0
:101740006F6D757387888D8786868585807D787EA9
:101750007786838A8481827F878B8C807B71767188
:10176000736A6D7D8695908E8480787876777880A0
:101770008B8F988C897E7D807E767173777D78776C
:101780006F727D8692918E868480837E7C72707D5E
:1017900086938E908A89837E747067676C7179777F
:1017A00079848C96988F85797C7D7F777776828A0D
:1017B000948E8F87807F7E80777471706C706F716C
:1017C000788A95A0998D7E7876756D70717F8F9AE5
:1017D0009F938A7D79757C797B7575777B7971703C
:1017E000808E97948C817A7D7C736F707788929EBF
:1017F000948E817B797D7B797476797A79726E7635
:101800008791948D887F7D7B7D737374808B99998C
:1018100090857C7C7A7B7478767D7E80786E6D7D19
:10182000878F8F848281827E7A787372808C979280
:1018300088817F82837877757A7E7D7A76747C88DA
:101840008F8F837D767B7E817B787A868E938C8268
:101850007C7C7D7E7C77797880807F746D72858CCE
:10186000918D847D7B7B7F7A74767C8F9A97867C42
:1018700076807E7C74727A838680776E6C808F9897
:1018800094867D7D7F7B736C747990949A887D7B40
:101890007E84807B73757B857D766C6B798F9A9A5D
:1018A0008C807A7F7C736668768FA09F8D7D7B7B32
:1018B0008179726E7A8188837D6F6A758C9A998D31
:1018C0007D7A797F796D6674889F9F927F7B818610
:1018D00084756A6D7B868778726A77919B95867B23
:1018E0007E817D786C71758392958E8182838785E8
:1018F0007A6F707B837E736F6A7F8F95918183850A
:10190000868374686F7185908E8C838786877F7BD2
:101910007174747C7A71706C8D9B9A897A7D8486DF
:10192000816C64728192938B817C8589847A7174D5
:101930007C837E6E6C6778989F9B8A808287817596
:101940005E62768D9794887E8283877B766D7679CA
:101950008077726E77949EA18C7E7982837D6A688F
:1019600071899B9284757A878F7E746E7B807E7975
:10197000706B73929A98877C7E898A85736C70816C
:10198000908D837A84989C91846D6F6D70656A6682
:101990007484867F68584F6A7B83727A87A4B8B94B
:1019A000AE9993807D7A7667738C9F988A7C8196B6
:1019B000948E756F717D7D7363666B757D7B7A6EBA
:1019C000757A8A887D70777F847E757B8B9C9A8CF4
:1019D0007A75797F7C736D7A838A8C8D8781818219
:1019E000837E78778086877F787A89948F81777DE8
:1019F00083827061647685898C8E9292938C887EC6
:101A000078716E70716F6E8293A196867C807D7EF8
:101A10006F6D7585928B847A7D818983847C807FCC
:101A200081796F646C849094847E80867E76666C07
:101A3000758E948C87838789867C7977817D7B708E
:101A40006E6D8290938C81818380776E6E798295A2
:101A50008F8A848889867B77767F8580756C696EAE
:101A6000858A8A7E7F868B868071737A87928B8443
:101A700080878B8B807A7882847F726C6B7D8D8C73
:101A8000857A7C838580766B76808D8C8680848B4E
:101A90008E887F7A7B807D78707073878E887E7B5E
:101AA0008085817E7675828C918983797E82827829
:101AB0007675808180787270718389877C7F818A56
:101AC000827F7275818E938E867C86878978747208
:101AD000818180716F72788B8D8A7F8081887A771F
:101AE0006B717E8D938F898186878677716D7C7F00
:101AF000807472767C8B928C8484868B837D7372E7
:101B00007B878A89817F8183847C78747A81817ADA
:101B1000716E717B878A8688898C8B857B74777FD1
:101B2000888B89818384867F7571727C82807672CE
:101B300071747D87898A888B8E877D757279848898
:101B40008F8A8C8B88877A716F757B7D76777478B6
:101B5000778188878A888686847C7771787D868C71
:101B600089898988877B736F7B83817974747875A1
:101B70007884888F8C8F88817674707579878C8A49
:101B80008A898A827770747885817C767675786F99
:101B9000849096968C89837B736C6E808891878500
:101BA000888C85796B727B83847A797B7B7B70757B
:101BB0008D92978A8482817771687A868F888486ED
:101BC0008A897F756D777C84797878827F7C717C57
:101BD0008D918F838081867B79717D838A868282D5
:101BE00085857E7C76817D837D7D797A75706D7843
:101BF0009090928185888C7D766A717D80887D86C3
:101C00008B92888679817C7F817B7A787B75736AF9
:101C100080848F87838388847F726C787B888287B7
:101C20008B938B867B7C7E7B7C7A7E84877B756CBA
:101C30007481888581828A8A837B7373777B7B7DBD
:101C4000858F8F8D87827E7D7A7B7A807F7C77748B
:101C5000737B898B8A86898C887B73656D79818398
:101C6000808994988F8372757A7F7B7A777F817968
:101C7000736C7C8C938F87878E867A69626E7B8685
:101C80008688929694877A727372767C7A7F828243
:101C9000787171828C928C858C8D84726964767F68
:101CA00086868C93999481746C70757B797E81851E
:101CB00080766E6C7E8F948C85888A837669677A4D
:101CC000868A86899397907E716D787D7E797B80F8
:101CD000858072696D829090868386887E746E722C
:101CE000828B8B898E939287787075797B78767CDE
:101CF00084877B726D74858C8A7C7E898E86766BF8
:101D000072878F897D809396897B6F737D7F7A76CA
:101D10007C868A7E716D7989857F79858D8D8176C6
:101D20006B758583847E8B9496887F7276797E79B5
:101D30007280838579776B76858D8D828284837CB2
:101D4000796E7A818A8B878B9090877E7378757A8B
:101D5000787C81827E716B69818E90837F8C8F838A
:101D6000766F6A7B878881828E989282737683836E
:101D700079727379797778747A8A978F8381878279
:101D800077726D72828987888E8E90867875828050
:101D90007471737F8585776E6F85938A787A828B6D
:101DA0008A75716D7F85878C8A9391937D69707335
:101DB000797A787C858F88746E6E828D8A787B8B39
:101DC000908670747B939189827C8C928A7F6668FE
:101DD0007D7C7873868C82716C6A6B879595828521
:101DE00092948C7D7D86887E746D7576696A787F25
:101DF000979B9690856F70614558688C9FBB9E90AD
:101E0000A2847D5E575687ADA098A9A47F87816A7A
:101E100057675B6E757D98B18D4C5E6BA08276A323
:101E2000937CA98E5E686073877C7382888C7F78D0
:101E30005D6E6A7A91A6AF9382555D6787A48E86A0
:101E4000879AA6815D5C6D7C7B8D8777969D938755
:101E50007E696E72827F6373838A837076828499CF
:101E6000837A7F7D83896D6E8884908D8E847A7964
:101E70007A7E7B79747681898C89766862667E86C3
:101E80009A9A807D8F947B64808F7D718295858105
:101E90007F8E7B81856E7777726870738085898C81
:101EA0009497878A7C6F71706A85848C908A9D8DE7
:101EB0007B786E75857A746C8282887A7470778587
:101EC0008A957C8089947C7366787F7B8182959EDD
:101ED00099857F737A76767471877F787A6E728847
:101EE00084848885A2997C6A5E6E847D8482929CBB
:101EF0009E8D667273736D72798B878A8276768017
:101F00008F887F757E878D817468848A82837F8FB6
:101F100090918075768573747573817E7873797707
:101F20008B8E8E8282878D826E6E7B87868D798383
:101F3000929180746F7A7E737E757D8486827E72C4
:101F400077888B8D7F81817E83806F7C8981827D84
:101F50008C91887577747C837C7D79878585766E96
:101F6000697B8E8E8C808B8A887A73748379777E76
:101F700086948A86777D7D85747971798988867360
:101F800071758B827E78858F8A7D787579887F855B
:101F900081899292807776797E79787285857C774F
:101FA00074757E8C837F7E868A877C7A778088852D
:101FB000867F868C8D7F7C777E807673717B817C3B
:101FC000797C768486868D868289817E77717F7D15
:101FD000828A868990837C7979817B75777A8282FF
:101FE00075767B81878A868082837E7E7C7B857DF9
:101FF0007D83878C8682807F7C7C787B7D80807FE0
:102000007A7A797F837A84838387857B77777D83E8
:1020100082858B8E8584807D74767C787C828384B7
:1020200082757475797F80828389878581817D7AC5
:102030007D8185868A89817D7D81827C7A767777AC
:102040007D80777E818081848789867C7A75777BA5
:102050008086888A8B898488857B79757175777F7E
:10206000837F7D7E7E7E86867F7F80747D85818472
:102070008482898A858586827872747C797C807F67
:102080007E7E7C83807E7F7D807D82838380808254
:102090008483828284867F7C7B7D7D807F7D7E7B46
:1020A0007B81807D7B7980848888817B787B7E8240
:1020B0008282898B87807C7C7C787A7D808081821B
:1020C0007B797C7D7D7F7F828382848782807B7B1E
:1020D000838886807B7B827E7E7C7A80847F817E03
:1020E000777D7C7C7D7F8381838482818684817FF0
:1020F00081827E807F7F7C7E7D7D85867E7B7B7AF4
:102100007F7B787A7B808383858284868483837FC8
:102110007E7D7C807C7C7E8082888583817C7C78CF
:10212000757778798082828383858883817F8184B3
:10213000847D77767B80828586868787817C7873AD
:1021400071767A7E7F82848484817C7F8486888293
:102150007E7D7B7B7D7D808385888988827977778A
:102160007576777C848586827F81847F7F82828476
:10217000817B777B7E82828383858684807F7B7967
:1021800077777B818082858181807F808284827D58
:102190007D7C7B7D8081817F828586847E7A7A7E4C
:1021A0007B7D8082807E7F83807D80848484817E2D
:1021B0007A7A7C7D7F7E7F828683837F7F7C7D7B36
:1021C0007C7D7F80818282848080828685817C7C08
:1021D0007B7F7F7E7F7F818381817F7D7C7A7A7D1B
:1021E0008080807E828583807D7D828788817D7DE1
:1021F0007E7F7E7D7E81828482827E7C77777B80FB
:102200007F7D8183807F7D7D81858787827F7E7FC3
:10221000807C7B797C7F8788847F7D7D81807B7AD1
:1022200077797D84848381848687847E7A787A7DB9
:1022300080828482838481807A7B7C7C7E7D7E82A6
:102240008482807E7C7E7F8486827D7B797D84848F
:10225000837E81838581817B78797A7D7C8182838D
:1022600082817B7D7E828782837E7C81807C7D7B78
:102270007E8782808186777A7F7F7E7A838084875B
:102280007F788380807B8581757A7E7E78857F7C70
:10229000828E877B79837C7B7E7A8483848485822B
:1022A000827D82817E7F7C767A807E837D8581813E
:1022B0008989857B7C75767E7D8080828382828120
:1022C000848385827B787F818384787B777E7D7928
:1022D0007C7D7B77847D798180848481898D8F8AE0
:1022E0008B8F8C858282828D8D877F8381797A77AF
:1022F000756F71706C6E68737473736D6E777D77C4
:102300007977768387828C8B9499979BA0A1948F01
:10231000888C938D868488847B7B757D77717067CC
:10232000696A726E707064646C737876737D898C80
:102330008D828D99948E908D939B939786838783BE
:102340008E8C7F7B797D7B807C6C5F6271635C6847
:10235000928C7A816F555484AC926580A67A658F91
:102360007F74A5C6947C9991919C8E7C84887C8393
:1023700091876D697B7871655B6775756C6C71723F
:1023800078807F79727F88888283838B949B9992EF
:1023900094969D9B9683797A7F7B797A726F757B11
:1023A000786D666D69707074776B6E737B7779800A
:1023B0008C8C8B8A8C8F93958D8D8D969890888838
:1023C0008A8C867B77797C7F7A7071717473746D77
:1023D0006666697173707170758083848484858A80
:1023E0008F909191919692888E939391908E877E03
:1023F0007D817C74747271746F6B6567686C7177C2
:1024000074777C7A7F7C7E88928B878A908C8D977C
:102410008F8B93958D8F928982888077767C736D70
:102420006F6F727175706F6F7273716F7A7D787B79
:102430008588838E8F8D8D92938F92928A87898DD6
:10244000888487858381817A76736F72746D6C6FEF
:102450006F6B6E727271767F8183858C87878B8AB2
:102460008A8D8F8C91928D898A8B8A8A88817E83CE
:10247000807B747674727373716E716F7071757521
:1024800076767B7E7E7F7D81868584888C938F8B1C
:102490008D8C8A8B8B88878A8B858384807C7D7CDE
:1024A000787775726F6F72747072757878787876E5
:1024B000777E7E7E8281878E8D898C8F919293909C
:1024C000908D87858182807C7A7F7F7F7976757217
:1024D000706F717174797C7A7B7B7B7F827F7F8563
:1024E000867E7F848784878C8F90918D8887848671
:1024F000827D7D81808282817E7C7B777575706E26
:1025000071716F6D73767A7E848386878985848402
:10251000808589898990908E8A8B898483847F7D48
:102520007A7B78767577787575777D7B7A787C7B22
:102530007A777A7F81828285848785868283868C7A
:102540008986818288878583858888817E7877756A
:10255000736F71767C7C7B7A767A7D7C76797B81F1
:102560007F7D7D828A8E8C898C8F918C8B878483F2
:102570008382808283807E7F7C78757271737678A7
:1025800076737575757676777C838887878A888871
:10259000878884858A908C8B8A8889868581817FCB
:1025A000817C7871717374726E72797F7C787273CA
:1025B000757979787D8489898985888A8A88878CE4
:1025C00091918A888688868280818285847B7774CF
:1025D0007675716C6F7377777577797B7C7B797E95
:1025E000838788827E808688898B8D9094928B8762
:1025F0008481807D7A7A7F85827D7C7A7A79757212
:102600007376797B767476777878787F8589888613
:10261000878385858482868B8E8A8887888A86834D
:10262000818485837E77707073757272777E818006
:102630007C77777978777B7F83888887888A8A8791
:1026400088878B8C8C88817F8082807C7C8183854D
:102650007D76747576727272757B807E797A7F81F1
:1026600080818386898A847F7F81838282838A8E28
:102670008E84817F7D7E7A76757A7F7F7D7F7E8076
:10268000817F7E7D81817E787576797E7E7D7F8477
:102690008B8B838180807F7E7D8085898A898784FA
:1026A00088847E7B7E8281807A7A7877787A777B5D
:1026B0008081817C7D7B7C79797C7F83868687881D
:1026C000888581828284848581817F7C7D7C7D7DFB
:1026D0008686827F7A797979747372797D84807C39
:1026E0008185897E7A7B7E8587827B7C80858784D5
:1026F00082858A8C87817F7A7B7E7E7D7C7B8282CD
:10270000817D767A7C7D80807C7E7E7B7C7B737510
:1027100080818A8B85848284837F7579818788858F
:102720008783878988807980858580746E707A80B8
:102730007C7F777D84777C767B786B797882898FD4
:10274000958E8B83868383858689878A8073717D46
:102750008C78718B8D87807D74696D6A76878A8BA2
:102760009784838A6C5E4A80826A9C9EA48473628A
:1027700070957C9290817D919785887C81767B761F
:1027800076857E8B849077678066737A80957C6B84
:10279000706F6C767997997E858F8D7D7B79808E31
:1027A000899489718183807B74747D9388969C97CA
:1027B0008D735846545F9E8E6F7876A684627F969E
:1027C0009B8B899268547A8681878291B2866F6EDC
:1027D000788A7C7D797E8BA08B71777576758789F9
:1027E0007777817774696A7B777A8A90888E877821
:1027F0007682908D808594959B908C8B8083716878
:10280000636B776B6D6A727C7E7D78737986797283
:10281000737384857E7E7C86A09F9EA5989C8D89FF
:102820008E8A8B8C8479867C85877073796F6C66D1
:10283000625E676F665F6270717773717F898A927B
:1028400088858F8E97929198979CA0968D8B8F926A
:102850008D898382807A796A707D776C645E696A1B
:1028600064695D64747F77777C86857C8490979AB1
:10287000988B94989690898A969791948C8A828066
:10288000776F746E64696A6B706A726F656D7B7165
:10289000727B7C7E7E847A7E7F8C9A9A9599A09EAC
:1028A0009B8E8E90908F86858484807973686D6FFF
:1028B000767071726A6A6D665C6F73747576828603
:1028C00084828187939597958D999B999287878D1F
:1028D0008F8D8C85827A7D786D677079736666706E
:1028E0006C6D686666717C84807C7F8587868B8A48
:1028F0008D919190959592908E88898C8E867E8808
:1029000084807F756E716C7171676B6A6D6E6C6DB2
:10291000758188847C7F827E8380828F94969A964C
:10292000929893948B85888281817F797E7D79705E
:102930006C726E6C6A676C7375746D737A757A7D80
:10294000818887878C8F8C8C959897979595928F97
:102950008B8A86837C7479756F726C6970706E7007
:102960007070716F77726F79797A8286888C9294A1
:10297000918F8C9292939090908E8B858A8986828B
:102980007B7B7B77756D6B6C706E6B6D70736F6F2F
:10299000717573737D848383898F8F8E8E8D8A8FFB
:1029A000908E8F8D8F8B8C878A8B8F8C807A7474AE
:1029B000706E6F72706E6C696E6E6C6B6F73747923
:1029C0007C7F7D80898C918F898E98999896979736
:1029D0009592928D87857F7D777777736D6D717115
:1029E0006A676E717071707072787C7C7A778083A0
:1029F0008B8F8E8B8B9193958F8B8A8E8D8A898707
:102A0000888A88807D7A7A75747372716B6E6C6C4B
:102A10007070727577787B7F808182868B87888AD9
:102A20008B9091908E8C8D918F8B898787857F7C01
:102A30007976757372746F6F716F716F6F71737573
:102A4000787B807F818588888988888D8E908E911B
:102A50009291908E8D8A8788827C78727677737057
:102A6000716F6F737572727271717274787D818318
:102A700087898C908E8F908F8E8D8E8E8B8A878794
:102A800087868583807C7B797873706F70737372AF
:102A900070716F747777797B7F7E7E7F8185888B7D
:102AA0008C8D8F91928E8D8D8E8B8685817E81808F
:102AB0007C7A797D7A74726E6F6E6C6E6D6E7374E3
:102AC0007A7E7D8282838185898886878B89898DBC
:102AD0008F8F908E8D8E8C8986817F7B79787777AA
:102AE00076767372727372717171737475767A7FA0
:102AF000818384888A8E8F8F8D8E8D8A898B8D8A33
:102B00008B8A8A8483837E7E7C7A777375777370F1
:102B100070706F6F7378767575787A7D7F80848733
:102B20008C8E8C8E9091918C8C8B8C8D8A8A8683E6
:102B3000817E7D7A79767475737371717072727536
:102B400078797A7D7F7F8382858385898988878666
:102B5000888987878688898987868584827F7B772D
:102B600077777473747477787877777A7E7D7C7BE7
:102B70007C8081858789898C8E8D8D8D8B888A88D4
:102B800085838281818181817F7D7B7C7B7775726A
:102B900073757578797A7A7E807F7F7E7E7F818279
:102BA000818183888A898C8A888A88878582817EC8
:102BB0007D7E7F7E7C7A77797A7776787877777979
:102BC0007777797A7E7E8081828684837F80818315
:102BD00086848684848588878685868584857E7AB2
:102BE0007A7A7B7E7A7A79797A7A787774777B7752
:102BF0007B7C7B7F83808384878B8E928F8E8C8D72
:102C0000868384837F807F7C7A7C7B797A7D8583D1
:102C10008A8D8B8379746D676A6A665C6466657099
:102C20007C878C939499929C9C9D9293999B9C9069
:102C30008D817E7A7E7E7D777677756D6A696B7819
:102C40007A77777C7F807B79797470777B7A787EEE
:102C500086898F8E857D818A888182898C877D781F
:102C60007876767C76758B90888176625D71939BA1
:102C7000757192956F60717B797E86766D85958D85
:102C80008E90898F979291978D83898887847C779E
:102C900071747574757A7570767973727D807F81C1
:102CA00085858986858C8A85848587868384817BD2
:102CB0007C82807B7D8184817A7A7F7E7C81847E28
:102CC000787C8782737A847A767E7B74757D7F7C4C
:102CD0007A7A7F8281838A8B86878C8C87878782AA
:102CE0007F80807E7C7C7C7B7B7D7C7C7876797C25
:102CF0007977787A7B797D7F8083827E7F817F7E02
:102D000083827E848C8A85888B8B8889877F7B7A77
:102D10007A797875787D807D7C7E7C7B7B7F827FF5
:102D2000797D83827D7D8183848685838584807F90
:102D30008181818589857F83898A85817D7D7F7F6A
:102D4000797374797874777C7A787C7E7B7D8080E7
:102D50008284828184878583848684838685807F3C
:102D60007E7C7E80807F7F7D7D81827D7A7E817D7D
:102D70007B7E7C76757A7D7D7B7B7E8484807D7F87
:102D80008284858481828686838384838587868105
:102D90007F7F7C797A79797B7C7E7E7E7D7B7B7D73
:102DA0007D7B7B7E807F7D7C7E8180808283818134
:102DB00083848382858888868383848382807D7BE5
:102DC000797B7D7A78797C7D7E7E7C7A7A7F818042
:102DD0007D7E82828181807F8283838181807F80EA
:102DE000828481828386848281807E7D7E7F7D7ADB
:102DF0007B7E7E7B79787B7D7D7E7F7F7F80807F01
:102E00007D7F8082828484838282818182818081AD
:102E100083828183827F7F82837E7D7D7D7C7C7BBC
:102E2000797A7D7F7F7D7D80817F7D7D7F818180BF
:102E30008080828484818283838484838181807F73
:102E40007E80807F7E7F7E7C7D7E7B7A7A7B7C7DB0
:102E50007D7C7F818281808080828583808081816A
:102E60008080818181818181808182817F7E7D7D61
:102E70007F807E7D7D7C7B7A7B7C7C7F807E7E807C
:102E8000817F7F8181818282838485848280808129
:102E90008181818181807F7E7E7D7C7E80807E7C41
:102EA0007C7C7B7B7A797A7D818180808080808147
:102EB00082838484838382818181828283827F7FF3
:102EC0007F7F7C7C7D7D7D7F8080807F7D7E7E7D21
:102ED0007D7E7E7E7E7E7E7D7C7E80818181828302
:102EE00083838282818183838283838382817F7FC4
:102EF0007E7D7D7E7D7C7C7D7E7D7B7B7C7D7F7F02
:102F00007F7E7F807F80807F7E80818181838382BE
:102F100082838483838282818182807E80807E7DA1
:102F20007C7E7D7D7C7B7B7B7B7B7E807F7F8282CA
:102F3000818180808183818182838282818080817E
:102F4000828081838381807E7C7C7B7B7B7C7C7E9A
:102F50007E7C7A7B7D7E7E7D7F808282817F808287
:102F600083848282848583817F7F7E7E7F7F7F7E54
:102F700080828280808080807E7D7B7B7C7B7C7D6C
:102F80007E808180807F807F7D7C7C7D7F8081834F
:102F9000868A8A87848383868786827D7D7B78780C
:102FA00074767E8284828182807D7771717479806B
:102FB0007F82858484858788888785807C7D7E7FE5
:102FC0007C7C8184898A8986827C77727174777B24
:102FD0007D80858887837F7D7D7D7E7D7A7B7D7CFE
:102FE0007D8080858A8A888888827E7C7B777A7CCF
:102FF0007E808384858480858384817F837A777AC9
:1030000078797A7A8284858984817E777372737DF8
:10301000847F838D8D8B8C8C7E818E837B70738C73
:103020007B6E8877727E768A858086827D737B72DE
:10303000797E72858184978685867C827E7F878073
:103040007C7B7F858180857F7A7E7E7A757A7B77AF
:10305000787B777A7B787E878892887C8681787582
:103060007B7C877C8287848D867F797973737C8172
:10307000868285897E826E7068616A7B8284887DA3
:103080008385918D989E9E9B9F968C86746C6B74A5
:103090006D80734B5370858E6963878C71667A8BF4
:1030A000908F9C96969B98959DA09D9887857C690E
:1030B00065544C555B573D444F4E546378858A9B0D
:1030C000A8B5CCDEE2E2D7BFBCB5A3877E6E5D506B
:1030D000473F3C35343733434B616C6F788694A956
:1030E000BFC2C5BDA4A8B4B1AA8D7F746F7275624A
:1030F00053413B4F637A665A7589908A8DA5A09497
:103100009C9C8985938F838C9D979495857462533D
:103110005352535761666C6F848A8F92898E8D9C4F
:10312000A7B1A6968A99939899817E7376716C4F10
:1031300049464A566575676A73838FA4B0B5A9A4DA
:10314000A8A2A0999D8E8A8B7C6F604A3C3C4F64FC
:103150006A6D666A686D828A929DABC9D8D1C2A633
:10316000896B676A68615B5C65636A735A4C546912
:10317000819DAAA9999CA7A39C979593979F9A8BA9
:10318000765D5750575554565B6575868B8F8A9080
:103190009496979D958E8B8B8F837F7F7E7F7F7D8F
:1031A00079716C6C6362636A6F6F7D8B979DA9A365
:1031B000978A867B7C837C818082898D8F958475BC
:1031C0006D696E706B68625E6565707B82818996E1
:1031D000ADB5BBB3998981817F837873656D7B7C45
:1031E0007C634F4A52627F8A8E8A838F97A4A2970C
:1031F000938A8C94969289777069676C6B6A636026
:103200006A6D737A7B858990938E8997A0A5A5A412
:103210009E897D6D686359525556637B8E9D947F60
:10322000716C7485969C9695999F9F9C9680676318
:10323000646C777871655C5F6C79807C8A8D8C8C2E
:103240008C9590878786838E8E8F87808888807AFA
:10325000767578706C63616A6C777F878E8E8882F2
:1032600081837E767E869BA6A0998C817D827F7FDE
:103270007269666B74726E5D585B7887949C9699E0
:103280008D96948D8A7B717C8898A0908E7E7274C6
:103290006D645D606D6E6B757A7C858A8F98999A86
:1032A000999493877B6F676A6F7A776D6D747D846D
:1032B0008A89888383898A8D8987857E8A8F90977A
:1032C0008B827977766E665F616A717B807B7873BB
:1032D000737A828E9B9D9D938988878A8B8C868347
:1032E0007B7879777F7E7571757A7A797D79737657
:1032F00079797D818384888C8683858681868E8F8B
:10330000918B858381817B7778777A7E7D7A7470E3
:10331000757272787C8082827E7974797F7F8488EE
:10332000898A86898D8C8C8D8E89888A878585800F
:103330007A77727171757874706C6766666C757B7C
:103340007F838A8C8E9092969B9D9C9E9B98928860
:10335000817C746F706D6B6765616268686B6B70A0
:103360007B7E82898E95989694999A9B9A9490895F
:103370007D767576757274787673727173747776FC
:1033800076777A7F81838486878B8B8D8F8C8B8AEF
:103390008581807D7D7F7F8282827E7D7C78757550
:1033A000777474747373767A7D7F8185858586875B
:1033B0008A8A8B9193928C8A8984817D7A7A7674B9
:1033C00072717071737474777B7F807E8283828266
:1033D00084858586878786888C918E8685837F7C89
:1033E00078757675757A76777E80817E7C7875764D
:1033F000777B7E84898886868A8B8C8C8D8A87826F
:103400007E7C7C7975777573747A818583827F7C05
:1034100078777B82898888868081807C7B7A7B7EB6
:103420007C7B79797D7D7E7F81878A8D9292908D5C
:1034300087827D7B7B7D7C7975737472706E6D6D18
:1034400070757B80898B8B8C8D8D919594979695DB
:1034500090877F78757474736D6B6B6C6D6B6F7028
:103460006F70737880878E94989A98989B9B9997A1
:103470009390877D7671717473706C686461646D0C
:103480006D6D6B6C7379848B939A9D9C9B99999FBE
:10349000A19D978E837C78777471716B635A5659AE
:1034A0005F656568696D7C858B949DA1A5A4A4A3C7
:1034B000A4A49C938D857A757270756D6A6663633A
:1034C0005F6161666A6D6E7883899092989DA0A60F
:1034D000A7A7A69E938E877E7B76787879706564A1
:1034E000626260606161656A727E8A999A98989456
:1034F0009593979DA2A19890847E7C777572706B4E
:10350000656566666A68626160647184969DA1A55E
:103510009D98928D8D909697968F8985847C7370F7
:103520006C6B65636C6E6A66676B6D79848B949F58
:103530009E998C7C797C7C828E989B918D868179FA
:103540007471767984857C6F625F5B5F6471798367
:103550008C969FA8A09C8C7B7A7E898C96948B7B82
:1035600078767172766F77786E65657580848B88F2
:10357000808A878C939EA293817E7F817E7F7A69E9
:1035800060555057595F7B888C8681898FA2A9AE80
:10359000B7B0A79D969EA39A83664A4C60564C543A
:1035A0006C6D4E525E5A709A9889969C94A0B4AFF6
:1035B000AAAA93837B6D696763635F66747E807676
:1035C0006A5E69767B8A949696969EA298948A867D
:1035D0009196968D806863645A595C6977818A8C6C
:1035E0007E6F6D6C6F7F8DA09B918F8A90938F8182
:1035F0008B9EA6ABA18064584A494F575D5F6B8193
:103600008A8C8E80777B93A8ACB2A48F9299958593
:1036100078727580868066493E40464E5666768E44
:10362000AEBCB7B19D8E9CA9BCC2A98E7466605118
:103630004545475F737E7D6D676C687078718294D5
:10364000AFC4D0C6B3A18A89847E796E5F5F5D56B0
:103650004D4B58657F94958E867D8486848B7F7FC5
:10366000949A9BA299948F89837B7974746C645C1F
:10367000585154698399A2A494827B7E7B7D787F84
:103680008794A2A09D908B8581787B726B6A636022
:103690005B56565E728C9AA39B908E959C9C948DE3
:1036A00089898B8A8073716B6C6F696F6F696A69C6
:1036B000676460677D97B7C1BFB2ABA39F9B8B7FE9
:1036C0006D625E61615D55595B626C6E7882879355
:1036D0009B908A868792A3AFB3AD9E8F8582796BCC
:1036E000625C5D5C5A574E4F637785929CA0A098B0
:1036F000938F897E7674839AA5AA9F93867C786936
:103700005C5F6B7274695E555661758A9EAAA79854
:1037100089857F827C7C838E9AA0998E8B7E817630
:103720006A67626A73706C676065708796A2A5A20B
:10373000948A7E7879727683909B99827A72787E69
:1037400079726E6D79827C796D696C7B8999A4A898
:10375000A59C927F6C615C6078868F8B7970686FB6
:1037600072717479869A9F968C7A757577828B942C
:10377000A2A29B8E6D5A55525F73828D877E7C7B91
:10378000828380858A949B968C7E7372706E778319
:103790008F9A988F856F5E5C63717A7E8383888B46
:1037A000868286838C929092847B6D65646A708336
:1037B000929BA7A3967E6A5D5E66757D87888E91D3
:1037C0008E8673797D82858689887F726B63666950
:1037D000788C929F9E9086756C72787F8485888B9A
:1037E00085807E79828F928E877B746C605C5D654C
:1037F00075839093969287847D7C818A94978E8935
:103800008077726E727B858B8B868276695D54566B
:1038100065768D9A9C9996989E968D8B82857B7302
:1038200074777475706F76828B8C87817969655B2C
:103830005A6B8295A3A1A09C90898180807774792E
:10384000777C736E6C767B8291959285837F7469A9
:103850006B65748285939790897E7984878D888241
:10386000817B747266626B7E89959B949C9485794A
:10387000655D6669788085968E887D7E90948F8957
:103880007F83897F735E5E6B78767A8796A29C8F42
:10389000817E79797C81827E7072797172767E7E8A
:1038A0007A7B81878275717985979B9B9997948B99
:1038B0007D685C5F67696668747D87837A7F8797B8
:1038C0009D8E85827F83807C75778B96958E8F9E6B
:1038D0009D87776C6E7060605D60696F71707687D0
:1038E000949A9C9CA9A2978D847E8D948D887F82CA
:1038F000867D766F69666068666D737276726E75C6
:1039000074756C647476786F7176859DA4A2A6B286
:10391000BDB8A39B908A7A6A61585C626356575D12
:1039200072887F7B7D8E948E837D8A93918E87941F
:10393000B1ADA091958C8D8E837F6F746F685D6043
:10394000646B654D59676E736E73828A958E979717
:103950009AB3A28A7F8D999D9D92877F75625C56EE
:1039600059646E6B696D717E7D818B8A888A8A92BB
:103970009599ACA49A918C8B8A7B72725C52586B2D
:103980006570665D70686F818E9EA9A49093939612
:10399000988AA09B8684798292796E7188716A7CFC
:1039A000788169534F615F64697B76778B9097A0CC
:1039B000A6A8B3A8988D949D918692978370635121
:1039C0006C6C5E5E59695E596F7F7480837E8995E9
:1039D0009DA5AA958B88726A6762677A776365741A
:1039E000927A7C959D9F9E9E9692989392947E80CB
:1039F00074928C99A083A599917C82634B3E1F3869
:103A00003C503B4F605A63618094A8B0B6B8B69CF6
:103A1000A5B1A8A6A4AF9F898B999D8D917A6B7B48
:103A20006C6B6C74676E5D4851433F485B565961DF
:103A30007C857C8FA3A19A919DABACA1A1978C981A
:103A4000867C807D849D8E869DAEB8C6C191837B29
:103A50006B7968758B8494908D9E9397907A5A4475
:103A6000484E4932522F3750404C595A6D817A7E18
:103A7000819390898188748E70728495A094A88DAA
:103A8000AB9DAB999B9180968E857D7A6D83657594
:103A90007F7C8F8EA7BDB2BBB8C3BBA09F939B8C0E
:103AA0007D6A775C5D56434147726D7F828C8A8167
:103AB0008E7E665556644F2E3D49404C5D80907712
:103AC00084787C6778876B7F646E6C787C7F8F7F6F
:103AD00077738A8B9D8F8797A5BAB1A7A3A4938E7E
:103AE000798598878A9C9C949694A09AAEB9B3A243
:103AF000899AB09A9598778076736F6A717A7D6E9D
:103B0000715F675B5D5B4441455058656365796AE9
:103B100063716E837F8A8685817C8F8E9988847E8F
:103B2000726B685F6E7472715F62636C68767A7BC9
:103B3000818682889A8C978A9EAC9DA99699978F48
:103B400084837781939EA795898270648288968604
:103B50007F7C81787A7F7D8B808F7D87958C869422
:103B600089979C9EA29A9F8F9B8A877E8B95A6BEE3
:103B7000AEAEADA88D9898908374766A7068574FF2
:103B80005C4E4A3B555F696F6A8C8194899B908A31
:103B900093807F6A626355465E655F666E64647299
:103BA0006B635254535554575E626D5661717B7509
:103BB0007E828F9EA6BDB4AA959BA097819AA58B65
:103BC00083837769716F7E838F948780808B9699CA
:103BD000A19E928F888D95A18E90A6A1ACBCD5C5D3
:103BE000B6B1A28F8486858C7C6D6D6C60627378B3
:103BF0008296918283827A7A7A77747E7E7A8286BE
:103C00008887917A7A7F8485737A776B617C8B9CC5
:103C10009784888D7D707069625A574E4B54685AEC
:103C20006A785F5D6468656E71696F70727A969C80
:103C30009297837B89847C8B989482837A72767F37
:103C40006F6975746F5857576167695C60757479EF
:103C5000889B9B8792A2A3A696968D857B8384855D
:103C600095A2AC99999F9D8D918D86848071737D6D
:103C70007B868E9389A1A6AAA39EAA9A8D8B90A4D7
:103C8000A29092837873766F727C7E7E6F74777267
:103C9000767E83857A7F816F615D5655574F50568A
:103CA0005E536668637672778D958A8178717274D7
:103CB000687680867F7B8B8E928A88837B74717115
:103CC000676568696C7781858174727F7C868C8377
:103CD0009CA59FA0A08E91979199958C8F856D6ED4
:103CE0006C6362686363626E707675727F80858BC9
:103CF00097978F8C8F95A5AAB2B4B9B8AC99969CBA
:103D0000948B887F79837C7D7A777C86848D88828A
:103D1000808180898F787F7F889194898A857F7957
:103D2000818A7A8088817783817F8283837F7C7D8B
:103D3000757070686B6B65666C6E6B646864696ED9
:103D40006762665F50514F50556C75787D898D89DB
:103D5000919A9E939D9C989A9A8E8A8F837A716F7E
:103D60007177716368675B5D6168767E8A8E8E931A
:103D7000959B9D95918F8886898C90909095918C3C
:103D80009497998E827F79726D737263687271787D
:103D90007E898E8E8B8B87838F97929AA2A9A79FFD
:103DA00099A1A3918C867E736F696E6C696A748227
:103DB0007C858789847F7D7777808A898C8C8E89C2
:103DC00085838D9390918B846E73746564686F7A2C
:103DD0007C757676766E6C64616C65686E69616719
:103DE000666574777884878784797B75757A80892E
:103DF000868B9393938885877D7E807E7980807C77
:103E00007E84838A8985827F7A777F747277777ED2
:103E10008582838A908990978D8A8885857D79822D
:103E20007C7A848F9196867E857D7D898A81818644
:103E300083818A83898A83838278797B727C80817B
:103E4000868979838F8E8D8988888984898B80780B
:103E5000807E818785828A8681827F77757571727F
:103E600072777876767F827E7D7F787D7F7C828593
:103E70007F838B84828286827F7E79777677777361
:103E80006F757A7A7D7775817D787C7C7E8680837C
:103E90008A898B8E8F888A8A8480837C777C7C7DDC
:103EA00077747A7F767D827F81857A757C7C7E834C
:103EB00082818B8B919589878C8A7F807B7C8580A2
:103EC00078767A7A828084898381817E7578777C1E
:103ED0007E7F80878884837C768284777A7E7A7BF3
:103EE0007B6F7578777D85868F8F8C8B87808387B6
:103EF0008281808083867C7F808082837D7A796FD7
:103F00006D71706B7476777E82878D88898A8385E0
:103F100088818287878889848687817D7D7871778B
:103F20007371716F6E727577757B817A7D84888EFF
:103F3000918F8F878A8C8682858180828689868907
:103F40008B837C7A797A787A7A7E838A86878C905A
:103F50008D8C8D878986847E7A7A7C797B827E7C43
:103F60007E80817A75727270737576787D838188B0
:103F7000898B8C8C898782817E76747674777F7E3C
:103F80007D80837C7773706C6B6E777B7F848B8C8A
:103F90008E919292918F88857C776E6D6C7072791C
:103FA0007A797E7E797274706F6C6D717579848B9D
:103FB0008C8D8F9094928F8E888382827D80828078
:103FC0007B7C797B7F7E7B7C736C696A6D73788583
:103FD0008D8F989D9F9EA199988E89837F797B7DF7
:103FE0007B8184837F7E797A766E696C64666D7A74
:103FF000838D92999E9A9897968D89827E7A79720E
:1040000074777B7D7D797D7A7676767473736F763F
:104010007B82838C8E91908F92908A837F7A79763F
:104020007172757676767A787975746F6E6E707057
:10403000727B7E818B91908F8E8B857F7A7B797856
:104040007576777B7E7F8484807E7F7F8080817F92
:104050007D7C7E7E82878A888C908E8987827C7C1C
:10406000797B76757477797F85878886848082826C
:104070007D7C7D7F85878A8C8C898B86807B76761C
:104080007577777C7B7B7A7F80838481807B787C6B
:104090007F7F818585878B8E928E908E8F86817FA4
:1040A0007976777773746F6E6F70757A7A7C7D7DB1
:1040B0007C8080807E8184888B8B8F8A88878781B3
:1040C0007E7972727173757373787B7A817F817F69
:1040D0007977797C7B83868C8F939593918A867F81
:1040E0007A787471757C7E848483827C7C7B7C7A14
:1040F0007E7C7F7E807F8084848887898984818399
:10410000827E7C77757674797A7C7C7E7C7E7F83F8
:10411000878587848683848687888C928D8C878127
:10412000827B7773726F70727278797E7E7F7F8008
:10413000807E818184858B8887878689888B888724
:1041400082817E7B78757371727477797A7A7879E7
:104150007A7C7C7D7F7F84868B8C8A88898987881E
:104160008485827F7C7A7572747376777B7B7D7CA5
:104170007C807F7F7E807D8287898A8A8C8D8D89F5
:104180008989868683827E7A7475747378797D7C5A
:104190007F7D807E7E7F7C7C7D828285878B8E8BFF
:1041A0008A8C8C888885807D78767371707375773A
:1041B00078797A77797A7C7B7C808284878B898A0C
:1041C000898A8A888886847F7E7B7977737070710C
:1041D000737676777D80848686878889888A8A8ABE
:1041E0008988888785817D7A76757473737475760E
:1041F00078797B7B7C7D81838687898B8B8A898795
:1042000087898B8D8D8C89857E7A767676767777A1
:1042100078787A787877787A80848587898A8C8D9F
:104220008C8985858686878784827D7A78797A7A73
:1042300079777575757473757980828385848484C4
:1042400084848585878888858484807D7C7B797952
:10425000767572717274747173767A7C82858989CD
:104260008A8D8D8B8C8D8C8B888784817E7E7E7FE2
:104270007E7E7974706E6C6C6D72797C80858889B5
:104280008C8D8E8D8D8D8C8A888886827E7B7979C7
:10429000797A7A77757775737373777C80858A8D71
:1042A0008F8F8D8A8C8D8E8D898683807C7A7775B1
:1042B000757676747576767775727375787C81838A
:1042C00086888988898A8C8C8C8A86827F7F7C7A92
:1042D000797B7C7C79777674737271717375787C75
:1042E0007F84888988878787888B8A898787858163
:1042F0007E7E7F80807E7D7B787574727274777924
:1043000079797C7F82858687878A8987868688886F
:10431000868484848484817E7B7A777472747879CD
:104320007A7B7C7F83868887888A8B8A8887878840
:1043300087868382817F7D797574747271717276DC
:10434000777A7C7E828586878A8C908E8B8785851E
:104350008583807F7E7E7C7A7674737171707276CD
:10436000797A7B7D8083868787898C8D8C8A86830A
:10437000817E7D7D7F8182817F7D7D7A7774747679
:10438000787B7B7C7D8080807F818486868482822E
:10439000848383807E7F8283827F7D7C7A78767837
:1043A0007B7E80807E7F82848382828486878684EF
:1043B0008282827F7F7F80838582817E7E7D797607
:1043C0007677797B7C7E7F828382828385878786EE
:1043D0008584848382828384868584807D7B7876CD
:1043E00075767879797B7C7E7F81808082858685F1
:1043F0008688888785817E7C7D7E7E7D7C7B7976C4
:104400007474757677797C7F8185878686868583C7
:1044100082838483838382807F7E7E7D7C7C7B79A4
:104420007A7A7978787A7D8183858586868887858A
:104430008281817F7C7D7E7F8081828181807E7C84
:104440007A7A7C7C7A7B7D80848787858485858663
:10445000858483817E7D7D7D7E7F80808182838156
:104460007D79797A7A7A7B7D808487878584838257
:104470008080818281807F7E7E7F82827F7F7F7F3E
:104480007E7C7C7C7C7B7A79797B7F81808081815A
:10449000818081817F7E7E7E7E7F80828282848514
:1044A000837F7A79797B7B79797B7D818485868529
:1044B00082807F808382817F7D7E7F8182828282F3
:1044C00081807C79797A7C7D7D7E7F8183858586FC
:1044D0008583817F7E80818181807E7E7F7C7B7CE5
:1044E0007F8282807E7D7E7F7D7D7E7F81838586CB
:1044F000878885817E7C7C7B7A7A7D7D7E7F7E7ECF
:104500007F808180807F7F7F7D7C7D7F81828383B0
:10451000848484827F7E7C7B7A7A7B7E7F80807FAE
:104520007E7F80807F7F8081807E7D7D7E80828394
:10453000838384838281817F7E7D7B7A7C7F81817E
:104540008181817F7D7D7E7F7F7E7E7E7D7E80817D
:10455000828384848281807E7D7D7D7D7C7D80825E
:10456000838485837F7B7978797C7D7F8182838357
:1045700082828282828281807E7D7C7C7D7D7F7F43
:104580007F80828383807E7D7B7D7C7D7E7F818337
:1045900083838382818282817F7D7C7A797A7D7F29
:1045A0007F808183858583817E7D7D7D7E7F808206
:1045B0008385858382807F7F7D7D7D7B7B7A7B7C0D
:1045C0007D7E7F808284868583817F7E7D7E7E7FE7
:1045D0008082848381817F7E7D7D7E7E7D7C7D7CEB
:1045E0007D7D7C7D7E808385858481807E7E7E7DD1
:1045F0007D7E808282828381807F7E7D7E7E7D7DC6
:104600007E80807F7E7E7F80818281807F808180AE
:10461000808281818180807F7F8181828282817F8F
:104620007E7E7D7D7C7B7C7D7F818281818081809F
:104630007E7E7F7F80808081818180808081828278
:104640007F7F7E7D7C7A7B7D7E818382828181807B
:104650007F7F808080807F7F7E7D7D7E7E80828266
:10466000817F7E7E7D7D7D7D7E8082828181828252
:10467000818181828282807E7C7B7A7A7A7B7E8253
:1046800083838280807F7D7D7E808384838182821C
:10469000828182828382817F7C7B7978787A7C7F39
:1046A0008183838382817F7D7D7E80828281818000
:1046B0008080808283848483817E7B787675777B1B
:1046C0007E818384848382807E7E80807F7F7F7FE3
:1046D000808181828282838382807F7C79767576F5
:1046E0007A7E8284858685827E7D7C7D7D7F8182C7
:1046F0008281808080818382828281817F7C7A78BE
:10470000797B7D7F808285868482807F7F7F8080A9
:104710007F7F7F7F8082848584838383807D7B7A93
:10472000797B7C7D7E808283838382817F7C7D7E9A
:104730007F81818180808281807F8081807E7D7B7E
:104740007B7B7B7C7D7D7F80808283848482807F75
:104750007E7E7F7E7E7F828381807F8080807E7B65
:104760007A7A7B7B7C7D7F8081828485878583814B
:104770007F7F7F7E7D7E808283838181807F7D7C41
:104780007A7B7D7E7E7F8081817F80818384858529
:10479000838281807E7D7E80828281817F7E7E7D1C
:1047A0007C7C7D7E7D7D7E7F7F7F7F818383848413
:1047B000848382817F7D7D7D7E818282817F7D7DFC
:1047C0007A7A7B7B7B7C7D7E7F7F7F7F808183830A
:1047D0008382828180807F7E7D7F808281817F7ED7
:1047E0007C7B7B7B7B7B7C7D7D7D7F8182828383E9
:1047F00084848382818080807F8081828282817FA5
:104800007D7C7C7C7B7B7B7D7E7E7F7E7F818384C9
:104810008585858482818080807F7F80818383817C
:104820007F7D7D7B7A7A7A7B7C7D7E7F7F808182B3
:104830008283848483838281817F7F7F808284845A
:10484000827F7D7C7A7A79797A7C7D7D7E80818198
:104850008181828382818181818181818080818344
:104860008382817F7E7C7B7A797A7B7B7B7C7E8076
:104870008182828283838382807E7E7E7F80828427
:1048800086868482807E7C7B797979797A7D7F7F48
:104890007F8081818181808181818181808080810F
:1048A000828485858483807D7B7B7B7A7A7C7E7F16
:1048B0007F7F7F7F808282818182828282818181EB
:1048C00080808181838483817E7D7D7D7C7B7C7EF5
:1048D0007E7E80807F8081818181818181818081D4
:1048E000818181807F81817F7F7E7E7E7D7C7D7ED8
:1048F0007F8181817F7F7E7F7F80807F80818181BA
:10490000818181807F80807F7E7D7E7D7D7E7E7EB9
:104910007E7F8080807F7E7D7D7E7F807F808181A5
:10492000808080807F8181818080807E7C7C7C7D96
:104930007D7E7F808181817F7E7F7F7F7F7F818180
:104940008182828080818282818282807E7D7D7D63
:104950007D7E80818181817F7E7E7E7F808182835A
:104960008382828080808080808181807F7E7E7E45
:104970007E7E7E7E7F8181807F7E7D7E7F7F818245
:1049800083838381807F7E7E7D7E8081807F7E7C2D
:104990007C7B7B7C7E808182817F7E7D7C7D7E7F37
:1049A000818384838281807F7E7D7D7F8081807E04
:1049B0007D7D7C7C7C7E8081818180807F7E7E7E0F
:1049C0007E80828383828382807F7F7F7F808180DD
:1049D0007E7E7D7C7C7D7F8080808080807F7F7FED
:1049E0007E7F818283838383828180807F808182B6
:1049F00081817F7D7B7B7C7E7F808281807F7E7ECC
:104A00007E7E7F80828385848381818180807F8098
:104A10007F80807F7C7C7D7D7D7D7F7F7F7F7F7EB3
:104A20007E7F807F808182838281808080807F8082
:104A30008080807E7D7C7C7C7D7C7E8080807F7E93
:104A40007E7E80808081838382807F7F7F80808064
:104A50008080807F7D7D7E7E7E7E7E7E7E7F7E7E70
:104A60007E7F81818081828485838280807F7F7F39
:104A70007F8081817F7F7E7F7E7D7C7C7C7D7E7E52
:104A80007E7E808181818283848383818081818114
:104A900081818282807E7D7D7D7C7C7C7C7D7E7F31
:104AA000807F8080808080818283838383828282F2
:104AB0008180807F7E7D7C7C7C7C7D7E7E7F7E7F16
:104AC0007F7D7E7F808081828384848483828181D4
:104AD00080807F807F7F7E7D7D7C7B7B7B7C7D7EFD
:104AE0007F7F7F80818181818283838281818081B8
:104AF00081818180807F7E7E7D7D7E7D7D7E7E7ECC
:104B00007E7D7D7E7F8181818283838381807F7FA3
:104B1000808181818181807F7E7E7E7E7E7F7F7F9E
:104B20007F7F7E7D7C7D7E7F80818182828281808D
:104B30007F808080818181818080807F8080807F74
:104B40007D7D7D7C7C7C7D7E7E8081828281807F7C
:104B50007E7E818282828281807F7F7F7E7F808055
:104B600080807F7E7C7B7C7D7E8082828181818152
:104B70007F7F7F8080828281807F7E7D7C7D7F8041
:104B8000808081807F7E7E7E7E7F81828282838222
:104B900081807F807F80807F7E7E7F7F7E7D7D7D28
:104BA0007E7E80818080807F7E7F80818283838300
:104BB00082817F7E7E7E7F807F7E7E7D7D7D7D7E0D
:104BC0007E7F8081818180807F7F808182838282DD
:104BD000828181807F7E7D7D7D7E7F7F7F7E7D7EE9
:104BE0007D7E7F8080818181807F7F7F80828383C3
:104BF000838281807F7E7E7E7E7E7E7E7F7F7F7EC3
:104C00007D7C7D7E7F80818181807F7F7F7F8081B1
:104C100082838382828180807F7F7F7E7E7E7E7E94
:104C20007E7E7F7E7E7E7E7E7E7E7F7F7E7F80819B
:104C300082828382828281818180818080807F7E66
:104C40007E7D7E7D7D7D7D7E7E7E7F7E7E7F7F8084
:104C50008081828383838282828182828281807F3B
:104C60007F7E7E7E7D7D7C7C7C7C7D7D7D7D7E806F
:104C7000808082828282828382828282828181811A
:104C800080807F7F7F7E7D7C7C7C7C7B7B7B7C7D52
:104C90007E808182828383838382828282828282F7
:104CA0008180807F7F7F7F7F7E7D7C7B7B7B7B7C29
:104CB0007C7D7E7F808182838383838382828282E4
:104CC00081808080808080807F7E7D7C7B7B7B7C00
:104CD0007C7D7E7E7F8080818182838383828282CD
:104CE00081808080808080818180807E7D7B7A7BD6
:104CF0007C7D7E7F80808180807F808181818181B9
:104D0000808181818181818181818181807F7D7CA0
:104D10007C7C7C7D7E808181817F7F7E7F7F8080A7
:104D2000818181818181818282828281807F7E7D79
:104D30007D7D7C7C7C7D7F8081807F7E7E7E7F8090
:104D400081818282828181818181828281807F7E54
:104D50007C7B7B7B7B7B7C7E808181807F7F7F8077
:104D60008182838383828282818180818181817F2C
:104D70007D7B7A797A7A7B7D7E808081818180805B
:104D800080818283838383828281807F7F7F807F13
:104D90007F7E7D7C7B7A7B7B7D7F8081818282822E
:104DA00081818282818282818180807F7F7F8080F9
:104DB0007F7F7E7D7D7D7D7D7E7F81818181818004
:104DC0007F7F7F80818283828181817F7F7E7F7FE1
:104DD0008080807F7F7E7D7D7E7E7F8080808080E2
:104DE0007F7E7E7E7E7F8183838281807F7F7F7FC7
:104DF00080818181807E7D7C7C7C7D7D7E7F8080CA
:104E000080808080807F8081828281817F7E7E7FA2
:104E10007F808181807F7E7D7C7C7C7E7E7F8080A8
:104E2000807F7F808081818282828282807F7E7E7D
:104E30007E7F7F808080807F7E7C7C7D7E7F808186
:104E4000818180807F7F80818283838382807E7D59
:104E50007D7D7E7F80808180807F7D7D7D7E7F8166
:104E600082828281807F7F7F808081828282817F37
:104E70007E7D7D7D7E7F808080807F7E7D7D7D7E4E
:104E80008080818180808080808181818181818119
:104E9000807F7E7D7D7E7F80807F7F7E7D7D7D7D2E
:104EA0007D7E7F8080808080808081818182828100
:104EB00080807F7F7E7E7E7F7F7F807F7E7D7D7C0A
:104EC0007D7E7F808080807F7F80818282828282DF
:104ED000828180807F7E7E7E7F8080807F7F7E7EDD
:104EE0007E7D7E7E808081818080808181818181C4
:104EF000818080808080807F7F7F7F807F7F7F7FB9
:104F00007F7E7F7F7F80808080807F7F7F7F7F80AC
:104F10008181818180808080807F7F7F7F7F7F7F94
:104F20007F7F7F7F7F7F7F7F7F7E7E7E7F7F7F8093
:104F300081818181818181818080808080807F7F6B
:104F40007E7E7D7E7E7E7E7F7F8080807F7F7F7F76
:104F50008081808180808181818181818080807F4A
:104F60007F7E7E7F7F7E7E7E7F7F7F808080808051
:104F70008080808080808080808080808080808031
:104F800080808080807F7E7E7E7E7F80808080802B
:104F90007F7F7F7F7F7F7F80807F7F7F7F7F80801D
:104FA0008182828281807F7F7E7E7E7F7F80808003
:104FB0007F7F7E7E7D7E7E7F7F807F7F8080808002
:104FC00080808282828281807F7E7E7E7E7F7F7FE4
:104FD0007F7F7F7F7E7E7D7E7E7F7F8080808080E2
:104FE0008080818283838281807E7D7D7D7E7F7EC5
:104FF0007F7F808180807E7D7D7D7E7F7F808181BF
:10500000808081818282828281807E7D7C7D7E7FA4
:105010007F808080807F7F7E7E7E7E7E7E7F8080A0
:1050200080808080818182828282807F7E7D7D7E81
:105030007E7F8081818281807F7E7E7E7D7E7E7F7D
:105040007F7F808080818181818181807F7F7F7F60
:105050007F7F7E7F8081828180807F7F7E7D7D7D5E
:105060007E7F7F80808081808081818180807F7F42
:105070007F7F7F7F7F8081818180807F7F7F7E7D3A
:105080007D7E7E7E7F7F8081818180808080808028
:105090007F7F7F7F7F7F80818181818080807F7E15
:1050A0007E7D7D7E7E7F8080818181818180807F09
:1050B0007F7F7F7F7F7F80808080808080807F7FF8
:1050C0007E7E7E7E7E7F80808080808080807F7FED
:1050D0007F8080807F7F7F7F7F7F7F8080818180D6
:1050E0008080807F7F7E7E7F7F8080808080807FC9
:1050F0007F7F80807F7F7F7E7F7F808080818180B7
:10510000807F7F7F7F7F7F7F808180808080807FA6
:105110007E7E7E7E7F7F7F7F7F7F7F7F7F8081819E
:10512000807F7F8080808080808080808080808081
:105130007F7F7F7E7E7E7E7D7E7F7F80808081827E
:10514000828281807F7F7E7F7F808181818080805D
:105150007F7F7F7E7D7D7D7E7F808181808081815C
:10516000818180808080807F7F808080807F7F7E43
:105170007E7F7F8080807F7F7E7F7F7F7F7F80803C
:105180008181818080807F7F7F7E7F7F7F7F808025
:10519000808080808080807F7F7E7F7F7F80808115
:1051A000818180807F7E7F7E7F7F7F7F8080808007
:1051B00080818181808080807F7F7F7F7F7F7F80F3
:1051C00080808080807F7F7F7F7E7E7F7F7F8080EA
:1051D0008080818181818181807F7E7E7E7E7F7FD4
:1051E0007F8081818180807F7F7E7E7D7E7E7F80CB
:1051F000808081818181818181807F7E7D7E7E7FB3
:105200007F8080818180807F7F7F7F7F7E7F7F7FA7
:105210007F7E7F7F80818181818181807F7F7E7F92
:105220007F7F7F7F80808080808080807F7E7E7D8A
:105230007E7D7E7E7F818181828181807F7F7E7E77
:105240007F7F808080808080808080807F7F7E7E66
:105250007E7E7D7D7E7F8080818182818181807F55
:105260007F80808080807F808080808181807F7F40
:105270007E7E7D7D7D7D7E7F80818181818181803B
:10528000807F808080808080808080808080807F20
:105290007E7E7D7D7D7E7E7F80808181818180801C
:1052A00080808080808080807F7F7F7F7F80808003
:1052B000807F7F7E7D7C7D7D7E80808181818181FC
:1052C0008180807F7F7F80808080808080808180DF
:1052D000807F7F7F7E7E7E7E7E7F7F8080818080DC
:1052E0008080807F7F7F808080807F7F7F7F8081C4
:1052F000818180807F7F7E7E7E7E7F7F80808080B8
:10530000807F7F7F7F8080808080807F7E7E7F80A7
:105310008181818181807F7E7E7E7E7F8080818190
:105320008080807F7F7F7F7F808081807F7F7E7E87
:105330007E7F8182828180807F7F7F7F7F8080806F
:10534000807F7F7F7F7F7F7F7F7F8080807F7F7E6A
:105350007E7E7F808181818180807F7F8080808050
:105360008080807F7F7F7F7F7F7F808080807F7F46
:105370007E7E7E7F7F808081818080808080808033
:105380008080808080807F7F7F7E7F7F8080808024
:105390007F7E7E7E7E7F808080808080807F808018
:1053A00080808181818080807F7F7F7F7E7F808001
:1053B000807F7F7E7E7E7E7F7F7F808080808080FA
:1053C0008081818180808080807F7F7F7F7F7F80E0
:1053D0007F7F7F7E7E7E7E7F7F7F808080808081DA
:1053E00080818181818180807F80807F7F7F7F7FBE
:1053F0007F7E7E7E7F7F7F7F7F8080808180807FB9
:105400007F8080818181828180807F7F7F7E7F7F9E
:105410007F7F7F7F7F7F7F807F7F7F7F7F7F808099
:10542000808081808080808080807F7F7F7E7E7F83
:105430007F8080807F7F7F7F7F7F7F7F7F80808076
:105440007F7F7F807F8080808080807F7F7F7F7F65
:105450007F7F808080807F807F7F807F7F80808053
:10546000807E7F7F7F7F808080807F7F7F81818043
:105470007F7E7E808081807F80818181808080812D
:10548000807F7E7D7D7F7F818281817F807F7D7D2A
:105490007C7D80848483817E7D7C7D7C7D7E80821A
:1054A0008384817F7D7C7D7D7F81828384848381F1
:1054B0007F7D7C7C7D7D7C7D7E838584837D7B7C04
:1054C0007D81817F7F7F81848483807C7B7C7F83DF
:1054D0008483817F7F807E7C7A797879797B8087ED
:1054E0008B8C877F7B7A7B7E7D7D8083888A888496
:1054F000807C7D7C7D7E7D7B7C7C7E7E7C7C7775EC
:105500007980868E8887817E8282837F7B7C80857E
:105510008988847E7C7C7D7F7E7C7A797C7D7F7AA5
:105520007776767F83898C8885837F7F7B797A7C89
:105530007F868B8B8B827D7573787B7E7E83828466
:105540007E7A7573757D868990888A87817C75736C
:10555000797E8385807D7F85898D837E78797E7E47
:105560007A7473767E868A8B838081858A847D7740
:10557000767E868B8A817D7D7D7D7C7372727C8A4E
:105580008F8E89817B7877787F858C94908E8076DA
:105590007372758182817D79838C928D7C71707537
:1055A0007B756C666C7C88908B878282888C8F87F9
:1055B000867C777A7A7C7C82889293877C76767FE9
:1055C00087857C767478786E6E6D82909B998676EE
:1055D0006B6F757C787E82929DA1988A8073777AB2
:1055E000827D7B7679858281817D7F7F73776E6610
:1055F0006F6760656378838E9BA0A7B3C2C0B99EB6
:10560000938B8F96887F6C54414045484A46515F42
:105610006E81858F95A5AFB9C1BAAEA6A59BA07FB7
:10562000655C5665635E4B4442403B505E6F8B9BAE
:10563000AFB7BFAD9D8A8E9592A5BCCBC0B7A284F3
:1056400063433B445052504B4F4F565E677A8393AF
:1056500091999C929EAFC4C4B6A59B918483879276
:105660008B80766E5D4B3B3036394B55658193A808
:10567000B2ADA08E8B929DA3A9A7A6AAA6A197873B
:105680006C53393B46515F5D55514B545E6C859868
:10569000B2BFD2D7D4C4A895857A8990847A5F4C5A
:1056A00041484E54555556657B7F847F7A8593A635
:1056B000C2C5C4B8A1978A89827269686F7275730E
:1056C00061534C51636F746B6A7686A5B3B6AC9028
:1056D0008C8F9A9F8F7E706F73817F7E71607073E5
:1056E0008487786B605F6A6D727678888C98A3A8DF
:1056F000AAA8ABA8958673625E606A716A666169E2
:1057000079868D8B7E7A7B828E8D8C7E7D7D889452
:10571000ADAA9F8C6B6662676C71645C5562788C15
:1057200092968E899893A5A69A917F797D80857FA0
:10573000736663757C847F6E63595D6B79848E8834
:105740008C98A0ABA495897D7C808586786D6A68ED
:105750007575727066717B88958F8A837D81888F5D
:105760008C92919D9D8A82655954586C7581827B7B
:105770007E78898C8781777E85919D9E9C95847AA1
:105780006D6964626877889593897C7169666D73C9
:105790007E8C9A97908979797C8192959C968B875B
:1057A0007E7A736D696C7379807D79756966605EE8
:1057B0006F7C8E9FA5A099887D7C7D8D969EA099FB
:1057C0009189797269636D6A6D6E6C767873766BA8
:1057D0006A6767778EA6B2B5A29185858A94939100
:1057E0008A7A746C6966646065626D6E747E828AA2
:1057F0008A8684827F898D9AA3A6A199847F7878EE
:105800007B777B716F6562606D76848C8A8780762A
:10581000797B777E777A7C88919B9C948C82858833
:1058200086837E7976736D6A6F768082807C7C7BDE
:105830007B7B7B7C7C83888A8988888B8D8A83822A
:105840008182817F7B7A7773727078818789877F85
:105850007A7B8184888582807E808180807975755D
:10586000767B83898C8A847E7A7A7B7F828381852A
:10587000858685827E7D8083837C78706F7076805C
:10588000858887807F82858A89827B7A7E84898ADF
:10589000847B7374747A7E818482817E8182848326
:1058A000817B7A7C7F8081808285848783817A78FE
:1058B000787B7C797A797C7E8690929289807C7CD8
:1058C0007D7F7D7572707680868A8B837C79787C0B
:1058D0007F7E7D7D7B7E82868A8888868482807EAC
:1058E0007F8080817E7B79797C7E7F81817F7D7BDB
:1058F0007A7878787C7E8284858A8A8B8B8A878383
:105900007F7F7F7E7F7C777675767877787C7D81E8
:10591000807E7D7D7D8185898E8D8F8E8E8E8A8520
:10592000807B78787977716C69696C73777C818317
:1059300087868586858A8E90918F898786858686DB
:10594000827F7C777570706C686A6A6E757A828502
:10595000898E908E8E888686878B8B8885848283BD
:1059600083807C787777777773717172757B8184A8
:1059700086878989868583817F81858686807D7EED
:10598000808482807B7675777A7A7B7A7A7B7F8552
:1059900085888685828082828283838486878383CA
:1059A0008280817E7E7D7A797A76757574787C7F47
:1059B000848381807D7D7B797A7E80858B8F8E8DBF
:1059C0008885848387827E7B7979797B7D7A7A79F1
:1059D0007777797A7D7D7B7A777A80878F979FA199
:1059E0009990837C787B79787570706A6F74747322
:1059F0007270747B898F8E8B817C7E838C96A3A939
:105A0000A59F8C8277706E636261636870777C801B
:105A10007B76767B8592999A9289827F7D80879228
:105A20009B9A9886786C63616067686D71768085F3
:105A300089837E787F8B969F9A91847C736F6E7634
:105A400083929CA093867969655F6267727C889176
:105A50009B95877B72747B868A8B88817A726D7046
:105A60008092A1A99D8B7B7268676262626C7D8E59
:105A70009FA79C8275676C72828D8D8D90897B76D5
:105A8000707786939B90827B6F6F6E6A6B6C728669
:105A900095A39C8C7965647185949D948B7A7170C3
:105AA0006B6C798791928E877A7978705F5B596F8A
:105AB00094ADBDAE90725F5B7080979C968C8A7D32
:105AC000787562706F8088938E8275695E545E6CA3
:105AD000829CACA49D81756E737C8A8D929B999BF0
